:020000020000FC
:1000000012C018951895DEC1189518951895189571
:100010001895189518951895189518951895189578
:100020001895189518950FED0DBF002708BB0FEF19
:1000300007BB0FE702BB002701BB00E808B909E0D6
:100040000EBD00270FBD08E009BF0FEF0BBD0ABDB5
:100050006627442700241124E894A3D010E2D8D0C6
:1000600018E2D6D011E0D4D016E0D2D01CE0D0D027
:1000700012E0CED0FCD011E8CBD0F3E0E6ED76D1A3
:1000800013ECC6D0F3E0E4EE71D1789403D03AD00B
:1000900046D0FBCF0F931F93613089F56627002769
:1000A000101611F4001649F1131409F4021428F47F
:1000B000122D032D1019010906C01FEF0FEF1019A3
:1000C0000119120D031D3EF00935A8F0063698F40B
:1000D000689420E112C0203019F462E0E8940BC06B
:1000E000880F0C3210F0816001C08E7F2A95283075
:1000F00021F4782F02C022243324022C132C1F91C8
:100100000F910895623051F4662736D1723031F480
:100110008A3020F463E0893009F483E008950F9376
:100120006330D1F466278A95BAF0C82FEEE3F4E085
:1001300015D0A591B491FB2FEA2F04910F3FD9F36D
:100140000F71302F0591001F001F001F001F077047
:10015000402F0BD0633089F70F910895DF93CC0FB8
:10016000D0E0EC0FFD1FDF910895FF93EF93CF9345
:100170000F931F93303051F0C32FECEFF3E0EEDF1D
:10018000059114911BBD0ABD00E40FBD0AD000E02B
:100190000FBD40E006D01F910F91CF91EF91FF91DD
:1001A0000895FF93EF93DF93CF93C42FEEEEF3E028
:1001B000D5DFC591D491EE27FF275FEF5A95F1F770
:1001C000613021F400E00FBD65DFAEF3623009F469
:1001D00099DF633029F03196CE1779F7DF1769F789
:1001E000CF91DF91EF91FF910895F89431D0C298AB
:1001F000C19AC09A38D006B30F93C09834D0C09A31
:1002000032D0C09830D00F91007899F77894089543
:10021000F894EBDFC29803C0F894E7DFC29AC19864
:10022000C09A1DD01F93107F08B30F700F93012B3E
:1002300008BB19D0C09817D0C09A0F911F91129582
:10024000107F012B08BB0FD0C09802D0789408957E
:1002500007B30F7007BB08B3006F08BB089507B35F
:10026000006F07BB08950EE00A95F1F7089510E4BA
:10027000CFDF15E1D1DF15E1CFDF15E1CDDF1EE0E6
:10028000CBDF15E1C9DF15E1C7DF15E1C5DF10E000
:10029000C3DF18E4BDDF11E1BFDF11E1BDDF13E112
:1002A000BBDF15E1B9DF19E1B7DF11E1B5DF11E11E
:1002B000B3DF10E0B1DF10E5ABDF1FE1ADDF11E12F
:1002C000ABDF11E1A9DF11E1A7DF11E1A5DF11E14A
:1002D000A3DF11E1A1DF10E09FDF18E599DF11E155
:1002E0009BDF11E199DF11E197DF1AE095DF14E060
:1002F00093DF18E091DF10E18FDF10E08DDF10E673
:1003000087DF1FE089DF15E087DF15E085DF15E077
:1003100083DF15E081DF15E17FDF19E07DDF10E08D
:100320007BDF18E675DF11E177DF11E175DF11E1A1
:1003300073DF11E171DF11E16FDF11E16DDF1FE1AB
:100340006BDF11E069DF10E763DF14E065DF1EE0BB
:1003500063DF15E161DF15E15FDF15E15DDF1EE0C1
:100360005BDF14E059DF10E057DF089515911F3F60
:1003700011F052DFFBCF089511E04ADF10E848DFAB
:100380001BE44ADF1FE648DF17E646DF1AE344DFD7
:1003900010E242DF172F03D0182F01D00895002755
:1003A0001A3018F003951A50FBCF003029F01F9334
:1003B00010E3100F31DF1F9100E3100F2DDF10E26B
:1003C0002BDF0895F8940FEF0BBD0ABD24B435B4AC
:1003D00061E0789418954841004D0154452005018D
:1003E000065003FF484120020304625445FF800089
:1003F00000010002000400080010002000008C1220
:1004000080118410980FB80EE40D1C0D600CAE0B1B
:10041000060B680AD2094609C0084208CC075C07E7
:10042000F2068E063006D70583053405E904A304D9
:1004300060042104E603AE037903470318034E0466
:100440009204FC041C053A058A05F6057A066D68D7
:100450006D686D6C6C606C686C686C6D6D606D68FF
:100460006D686D6C6C606C686C686C8D606D6F4FE6
:100470004F6F6F7050507070706F6D6C6D6D606D00
:100480006F4F4F6F6F7050507070706F6D6C8D80CC
:1004900060FF6D6E8D666869666D6E8D68696B68EC
:1004A0006D6E8D68698B6D6EAD607273926D6E70DE
:1004B0006D7273926B6D6E72706E926D69886B69FE
:1004C0008680806669898880686B8B8980696D8D7C
:1004D0008B806E6DB0706C6D70908E806B6E8E8D3B
:1004E00080696D8B80AD8680806D70908E806B6E24
:1004F0008E8D80696D8B80AD928060FF848D8D8B39
:100500008D898484848D8D8E8BB0809092929A9AFE
:100510009997959099999799B58060FF6B6B8D8BA2
:10052000908F806B6B8D8B9290806B6B9794927099
:100530006F9575759490929080FF63AF6D6B6A664E
:1005400063906FAF60636B6B6B6B6668AA60636D83
:100550006D6D6D6B6A8F6D8D636D6D6D6D686AAB62
:1005600060636F6D6B6A6663906F8F687272727290
:100570006D6FB0606874706D6B6A40498F6B836398
:10058000905050706F404BAD80FF696D7095744016
:10059000509472404E92706069696D906F405091B6
:1005A000704051B260757575957440529270404FAD
:1005B00092906069696B8D6C6D706E666889806001
:1005C000696969896640498E696B6D404B896069CC
:1005D00069698966698E704052B4607474749472EB
:1005E000708E6D404E92906069696B8D6C6D706E0F
:1005F0006668A96060FF6B688D8B66696866A48019
:10060000686B6D6D6D6F72706F6D908B806D6F909C
:10061000606F6D686B69AD806F6D706B6F6D6D6BCA
:10062000666886848064676B6B6B6B8B70646766CF
:1006300066668666676B696B6C6C6C6C6B696B6C01
:10064000908E80706B6E8C70696C6B6B6B698C8B31
:100650008B70676667696C6B696780706B6E6C6CBA
:100660006C8C70696C6B6B6B8B70676667696C6B9D
:100670006967698B8480606060FF66698D6B698DD6
:10068000606BAB6068698B6869A680A06D6E906EC8
:100690006D90606EAE806E70927072CD757595744F
:1006A00072956074AE806E70927072CD8066698D46
:1006B0006B698D606BAB8068698B6869A68080759B
:1006C00075957472956074AE806E70927072CD8004
:1006D00066698D6B698D606BAB8068698B6869A694
:0406E000808060FFB7
:00000001FF
